{
  "_format": "hh-sol-artifact-1",
  "contractName": "GasparyanToken",
  "sourceName": "contracts/GasparyanToken.sol",
  "abi": [
    {
      "inputs": [],
      "stateMutability": "nonpayable",
      "type": "constructor"
    },
    {
      "anonymous": false,
      "inputs": [
        {
          "indexed": true,
          "internalType": "address",
          "name": "owner",
          "type": "address"
        },
        {
          "indexed": true,
          "internalType": "address",
          "name": "spender",
          "type": "address"
        },
        {
          "indexed": false,
          "internalType": "uint256",
          "name": "value",
          "type": "uint256"
        }
      ],
      "name": "Approval",
      "type": "event"
    },
    {
      "anonymous": false,
      "inputs": [
        {
          "indexed": true,
          "internalType": "address",
          "name": "previousOwner",
          "type": "address"
        },
        {
          "indexed": true,
          "internalType": "address",
          "name": "newOwner",
          "type": "address"
        }
      ],
      "name": "OwnershipTransferred",
      "type": "event"
    },
    {
      "anonymous": false,
      "inputs": [
        {
          "indexed": true,
          "internalType": "address",
          "name": "from",
          "type": "address"
        },
        {
          "indexed": true,
          "internalType": "address",
          "name": "to",
          "type": "address"
        },
        {
          "indexed": false,
          "internalType": "uint256",
          "name": "value",
          "type": "uint256"
        }
      ],
      "name": "Transfer",
      "type": "event"
    },
    {
      "inputs": [
        {
          "internalType": "address",
          "name": "owner",
          "type": "address"
        },
        {
          "internalType": "address",
          "name": "spender",
          "type": "address"
        }
      ],
      "name": "allowance",
      "outputs": [
        {
          "internalType": "uint256",
          "name": "",
          "type": "uint256"
        }
      ],
      "stateMutability": "view",
      "type": "function"
    },
    {
      "inputs": [
        {
          "internalType": "address",
          "name": "spender",
          "type": "address"
        },
        {
          "internalType": "uint256",
          "name": "amount",
          "type": "uint256"
        }
      ],
      "name": "approve",
      "outputs": [
        {
          "internalType": "bool",
          "name": "",
          "type": "bool"
        }
      ],
      "stateMutability": "nonpayable",
      "type": "function"
    },
    {
      "inputs": [
        {
          "internalType": "address",
          "name": "account",
          "type": "address"
        }
      ],
      "name": "balanceOf",
      "outputs": [
        {
          "internalType": "uint256",
          "name": "",
          "type": "uint256"
        }
      ],
      "stateMutability": "view",
      "type": "function"
    },
    {
      "inputs": [],
      "name": "decimals",
      "outputs": [
        {
          "internalType": "uint8",
          "name": "",
          "type": "uint8"
        }
      ],
      "stateMutability": "view",
      "type": "function"
    },
    {
      "inputs": [
        {
          "internalType": "address",
          "name": "spender",
          "type": "address"
        },
        {
          "internalType": "uint256",
          "name": "subtractedValue",
          "type": "uint256"
        }
      ],
      "name": "decreaseAllowance",
      "outputs": [
        {
          "internalType": "bool",
          "name": "",
          "type": "bool"
        }
      ],
      "stateMutability": "nonpayable",
      "type": "function"
    },
    {
      "inputs": [
        {
          "internalType": "address",
          "name": "spender",
          "type": "address"
        },
        {
          "internalType": "uint256",
          "name": "addedValue",
          "type": "uint256"
        }
      ],
      "name": "increaseAllowance",
      "outputs": [
        {
          "internalType": "bool",
          "name": "",
          "type": "bool"
        }
      ],
      "stateMutability": "nonpayable",
      "type": "function"
    },
    {
      "inputs": [],
      "name": "name",
      "outputs": [
        {
          "internalType": "string",
          "name": "",
          "type": "string"
        }
      ],
      "stateMutability": "view",
      "type": "function"
    },
    {
      "inputs": [],
      "name": "owner",
      "outputs": [
        {
          "internalType": "address",
          "name": "",
          "type": "address"
        }
      ],
      "stateMutability": "view",
      "type": "function"
    },
    {
      "inputs": [],
      "name": "renounceOwnership",
      "outputs": [],
      "stateMutability": "nonpayable",
      "type": "function"
    },
    {
      "inputs": [],
      "name": "symbol",
      "outputs": [
        {
          "internalType": "string",
          "name": "",
          "type": "string"
        }
      ],
      "stateMutability": "view",
      "type": "function"
    },
    {
      "inputs": [],
      "name": "testSum",
      "outputs": [
        {
          "internalType": "int256",
          "name": "",
          "type": "int256"
        }
      ],
      "stateMutability": "view",
      "type": "function"
    },
    {
      "inputs": [],
      "name": "totalSupply",
      "outputs": [
        {
          "internalType": "uint256",
          "name": "",
          "type": "uint256"
        }
      ],
      "stateMutability": "view",
      "type": "function"
    },
    {
      "inputs": [
        {
          "internalType": "address",
          "name": "to",
          "type": "address"
        },
        {
          "internalType": "uint256",
          "name": "amount",
          "type": "uint256"
        }
      ],
      "name": "transfer",
      "outputs": [
        {
          "internalType": "bool",
          "name": "",
          "type": "bool"
        }
      ],
      "stateMutability": "nonpayable",
      "type": "function"
    },
    {
      "inputs": [
        {
          "internalType": "address",
          "name": "from",
          "type": "address"
        },
        {
          "internalType": "address",
          "name": "to",
          "type": "address"
        },
        {
          "internalType": "uint256",
          "name": "amount",
          "type": "uint256"
        }
      ],
      "name": "transferFrom",
      "outputs": [
        {
          "internalType": "bool",
          "name": "",
          "type": "bool"
        }
      ],
      "stateMutability": "nonpayable",
      "type": "function"
    },
    {
      "inputs": [
        {
          "internalType": "address",
          "name": "newOwner",
          "type": "address"
        }
      ],
      "name": "transferOwnership",
      "outputs": [],
      "stateMutability": "nonpayable",
      "type": "function"
    }
  ],
  "bytecode": "0x60806040523480156200001157600080fd5b506040518060400160405280600e81526020017f47617370617279616e546f6b656e0000000000000000000000000000000000008152506040518060400160405280600381526020017f474154000000000000000000000000000000000000000000000000000000000081525081600390805190602001906200009692919062000366565b508060049080519060200190620000af92919062000366565b505050620000d2620000c66200011760201b60201c565b6200011f60201b60201c565b6200011133620000e7620001e560201b60201c565b600a620000f59190620005b0565b620493e062000105919062000601565b620001ee60201b60201c565b620007d5565b600033905090565b6000600560009054906101000a900473ffffffffffffffffffffffffffffffffffffffff16905081600560006101000a81548173ffffffffffffffffffffffffffffffffffffffff021916908373ffffffffffffffffffffffffffffffffffffffff1602179055508173ffffffffffffffffffffffffffffffffffffffff168173ffffffffffffffffffffffffffffffffffffffff167f8be0079c531659141344cd1fd0a4f28419497f9722a3daafe3b4186f6b6457e060405160405180910390a35050565b60006012905090565b600073ffffffffffffffffffffffffffffffffffffffff168273ffffffffffffffffffffffffffffffffffffffff16141562000261576040517f08c379a00000000000000000000000000000000000000000000000000000000081526004016200025890620006c3565b60405180910390fd5b62000275600083836200035c60201b60201c565b8060026000828254620002899190620006e5565b92505081905550806000808473ffffffffffffffffffffffffffffffffffffffff1673ffffffffffffffffffffffffffffffffffffffff168152602001908152602001600020600082825401925050819055508173ffffffffffffffffffffffffffffffffffffffff16600073ffffffffffffffffffffffffffffffffffffffff167fddf252ad1be2c89b69c2b068fc378daa952ba7f163c4a11628f55a4df523b3ef836040516200033c919062000753565b60405180910390a362000358600083836200036160201b60201c565b5050565b505050565b505050565b82805462000374906200079f565b90600052602060002090601f016020900481019282620003985760008555620003e4565b82601f10620003b357805160ff1916838001178555620003e4565b82800160010185558215620003e4579182015b82811115620003e3578251825591602001919060010190620003c6565b5b509050620003f39190620003f7565b5090565b5b8082111562000412576000816000905550600101620003f8565b5090565b7f4e487b7100000000000000000000000000000000000000000000000000000000600052601160045260246000fd5b60008160011c9050919050565b6000808291508390505b6001851115620004a4578086048111156200047c576200047b62000416565b5b60018516156200048c5780820291505b80810290506200049c8562000445565b94506200045c565b94509492505050565b600082620004bf576001905062000592565b81620004cf576000905062000592565b8160018114620004e85760028114620004f35762000529565b600191505062000592565b60ff84111562000508576200050762000416565b5b8360020a91508482111562000522576200052162000416565b5b5062000592565b5060208310610133831016604e8410600b8410161715620005635782820a9050838111156200055d576200055c62000416565b5b62000592565b62000572848484600162000452565b925090508184048111156200058c576200058b62000416565b5b81810290505b9392505050565b6000819050919050565b600060ff82169050919050565b6000620005bd8262000599565b9150620005ca83620005a3565b9250620005f97fffffffffffffffffffffffffffffffffffffffffffffffffffffffffffffffff8484620004ad565b905092915050565b60006200060e8262000599565b91506200061b8362000599565b9250817fffffffffffffffffffffffffffffffffffffffffffffffffffffffffffffffff048311821515161562000657576200065662000416565b5b828202905092915050565b600082825260208201905092915050565b7f45524332303a206d696e7420746f20746865207a65726f206164647265737300600082015250565b6000620006ab601f8362000662565b9150620006b88262000673565b602082019050919050565b60006020820190508181036000830152620006de816200069c565b9050919050565b6000620006f28262000599565b9150620006ff8362000599565b9250827fffffffffffffffffffffffffffffffffffffffffffffffffffffffffffffffff0382111562000737576200073662000416565b5b828201905092915050565b6200074d8162000599565b82525050565b60006020820190506200076a600083018462000742565b92915050565b7f4e487b7100000000000000000000000000000000000000000000000000000000600052602260045260246000fd5b60006002820490506001821680620007b857607f821691505b60208210811415620007cf57620007ce62000770565b5b50919050565b61167880620007e56000396000f3fe608060405234801561001057600080fd5b50600436106100f55760003560e01c8063715018a611610097578063a457c2d711610066578063a457c2d714610278578063a9059cbb146102a8578063dd62ed3e146102d8578063f2fde38b14610308576100f5565b8063715018a614610214578063795dc56a1461021e5780638da5cb5b1461023c57806395d89b411461025a576100f5565b806323b872dd116100d357806323b872dd14610166578063313ce5671461019657806339509351146101b457806370a08231146101e4576100f5565b806306fdde03146100fa578063095ea7b31461011857806318160ddd14610148575b600080fd5b610102610324565b60405161010f9190610dd6565b60405180910390f35b610132600480360381019061012d9190610e91565b6103b6565b60405161013f9190610eec565b60405180910390f35b6101506103d9565b60405161015d9190610f16565b60405180910390f35b610180600480360381019061017b9190610f31565b6103e3565b60405161018d9190610eec565b60405180910390f35b61019e610412565b6040516101ab9190610fa0565b60405180910390f35b6101ce60048036038101906101c99190610e91565b61041b565b6040516101db9190610eec565b60405180910390f35b6101fe60048036038101906101f99190610fbb565b610452565b60405161020b9190610f16565b60405180910390f35b61021c61049a565b005b6102266104ae565b6040516102339190611001565b60405180910390f35b6102446104b7565b604051610251919061102b565b60405180910390f35b6102626104e1565b60405161026f9190610dd6565b60405180910390f35b610292600480360381019061028d9190610e91565b610573565b60405161029f9190610eec565b60405180910390f35b6102c260048036038101906102bd9190610e91565b6105ea565b6040516102cf9190610eec565b60405180910390f35b6102f260048036038101906102ed9190611046565b61060d565b6040516102ff9190610f16565b60405180910390f35b610322600480360381019061031d9190610fbb565b610694565b005b606060038054610333906110b5565b80601f016020809104026020016040519081016040528092919081815260200182805461035f906110b5565b80156103ac5780601f10610381576101008083540402835291602001916103ac565b820191906000526020600020905b81548152906001019060200180831161038f57829003601f168201915b5050505050905090565b6000806103c1610718565b90506103ce818585610720565b600191505092915050565b6000600254905090565b6000806103ee610718565b90506103fb8582856108eb565b610406858585610977565b60019150509392505050565b60006012905090565b600080610426610718565b9050610447818585610438858961060d565b6104429190611116565b610720565b600191505092915050565b60008060008373ffffffffffffffffffffffffffffffffffffffff1673ffffffffffffffffffffffffffffffffffffffff168152602001908152602001600020549050919050565b6104a2610bef565b6104ac6000610c6d565b565b60006004905090565b6000600560009054906101000a900473ffffffffffffffffffffffffffffffffffffffff16905090565b6060600480546104f0906110b5565b80601f016020809104026020016040519081016040528092919081815260200182805461051c906110b5565b80156105695780601f1061053e57610100808354040283529160200191610569565b820191906000526020600020905b81548152906001019060200180831161054c57829003601f168201915b5050505050905090565b60008061057e610718565b9050600061058c828661060d565b9050838110156105d1576040517f08c379a00000000000000000000000000000000000000000000000000000000081526004016105c8906111de565b60405180910390fd5b6105de8286868403610720565b60019250505092915050565b6000806105f5610718565b9050610602818585610977565b600191505092915050565b6000600160008473ffffffffffffffffffffffffffffffffffffffff1673ffffffffffffffffffffffffffffffffffffffff16815260200190815260200160002060008373ffffffffffffffffffffffffffffffffffffffff1673ffffffffffffffffffffffffffffffffffffffff16815260200190815260200160002054905092915050565b61069c610bef565b600073ffffffffffffffffffffffffffffffffffffffff168173ffffffffffffffffffffffffffffffffffffffff16141561070c576040517f08c379a000000000000000000000000000000000000000000000000000000000815260040161070390611270565b60405180910390fd5b61071581610c6d565b50565b600033905090565b600073ffffffffffffffffffffffffffffffffffffffff168373ffffffffffffffffffffffffffffffffffffffff161415610790576040517f08c379a000000000000000000000000000000000000000000000000000000000815260040161078790611302565b60405180910390fd5b600073ffffffffffffffffffffffffffffffffffffffff168273ffffffffffffffffffffffffffffffffffffffff161415610800576040517f08c379a00000000000000000000000000000000000000000000000000000000081526004016107f790611394565b60405180910390fd5b80600160008573ffffffffffffffffffffffffffffffffffffffff1673ffffffffffffffffffffffffffffffffffffffff16815260200190815260200160002060008473ffffffffffffffffffffffffffffffffffffffff1673ffffffffffffffffffffffffffffffffffffffff168152602001908152602001600020819055508173ffffffffffffffffffffffffffffffffffffffff168373ffffffffffffffffffffffffffffffffffffffff167f8c5be1e5ebec7d5bd14f71427d1e84f3dd0314c0f7b2291e5b200ac8c7c3b925836040516108de9190610f16565b60405180910390a3505050565b60006108f7848461060d565b90507fffffffffffffffffffffffffffffffffffffffffffffffffffffffffffffffff81146109715781811015610963576040517f08c379a000000000000000000000000000000000000000000000000000000000815260040161095a90611400565b60405180910390fd5b6109708484848403610720565b5b50505050565b600073ffffffffffffffffffffffffffffffffffffffff168373ffffffffffffffffffffffffffffffffffffffff1614156109e7576040517f08c379a00000000000000000000000000000000000000000000000000000000081526004016109de90611492565b60405180910390fd5b600073ffffffffffffffffffffffffffffffffffffffff168273ffffffffffffffffffffffffffffffffffffffff161415610a57576040517f08c379a0000000000000000000000000000000000000000000000000000000008152600401610a4e90611524565b60405180910390fd5b610a62838383610d33565b60008060008573ffffffffffffffffffffffffffffffffffffffff1673ffffffffffffffffffffffffffffffffffffffff16815260200190815260200160002054905081811015610ae8576040517f08c379a0000000000000000000000000000000000000000000000000000000008152600401610adf906115b6565b60405180910390fd5b8181036000808673ffffffffffffffffffffffffffffffffffffffff1673ffffffffffffffffffffffffffffffffffffffff16815260200190815260200160002081905550816000808573ffffffffffffffffffffffffffffffffffffffff1673ffffffffffffffffffffffffffffffffffffffff168152602001908152602001600020600082825401925050819055508273ffffffffffffffffffffffffffffffffffffffff168473ffffffffffffffffffffffffffffffffffffffff167fddf252ad1be2c89b69c2b068fc378daa952ba7f163c4a11628f55a4df523b3ef84604051610bd69190610f16565b60405180910390a3610be9848484610d38565b50505050565b610bf7610718565b73ffffffffffffffffffffffffffffffffffffffff16610c156104b7565b73ffffffffffffffffffffffffffffffffffffffff1614610c6b576040517f08c379a0000000000000000000000000000000000000000000000000000000008152600401610c6290611622565b60405180910390fd5b565b6000600560009054906101000a900473ffffffffffffffffffffffffffffffffffffffff16905081600560006101000a81548173ffffffffffffffffffffffffffffffffffffffff021916908373ffffffffffffffffffffffffffffffffffffffff1602179055508173ffffffffffffffffffffffffffffffffffffffff168173ffffffffffffffffffffffffffffffffffffffff167f8be0079c531659141344cd1fd0a4f28419497f9722a3daafe3b4186f6b6457e060405160405180910390a35050565b505050565b505050565b600081519050919050565b600082825260208201905092915050565b60005b83811015610d77578082015181840152602081019050610d5c565b83811115610d86576000848401525b50505050565b6000601f19601f8301169050919050565b6000610da882610d3d565b610db28185610d48565b9350610dc2818560208601610d59565b610dcb81610d8c565b840191505092915050565b60006020820190508181036000830152610df08184610d9d565b905092915050565b600080fd5b600073ffffffffffffffffffffffffffffffffffffffff82169050919050565b6000610e2882610dfd565b9050919050565b610e3881610e1d565b8114610e4357600080fd5b50565b600081359050610e5581610e2f565b92915050565b6000819050919050565b610e6e81610e5b565b8114610e7957600080fd5b50565b600081359050610e8b81610e65565b92915050565b60008060408385031215610ea857610ea7610df8565b5b6000610eb685828601610e46565b9250506020610ec785828601610e7c565b9150509250929050565b60008115159050919050565b610ee681610ed1565b82525050565b6000602082019050610f016000830184610edd565b92915050565b610f1081610e5b565b82525050565b6000602082019050610f2b6000830184610f07565b92915050565b600080600060608486031215610f4a57610f49610df8565b5b6000610f5886828701610e46565b9350506020610f6986828701610e46565b9250506040610f7a86828701610e7c565b9150509250925092565b600060ff82169050919050565b610f9a81610f84565b82525050565b6000602082019050610fb56000830184610f91565b92915050565b600060208284031215610fd157610fd0610df8565b5b6000610fdf84828501610e46565b91505092915050565b6000819050919050565b610ffb81610fe8565b82525050565b60006020820190506110166000830184610ff2565b92915050565b61102581610e1d565b82525050565b6000602082019050611040600083018461101c565b92915050565b6000806040838503121561105d5761105c610df8565b5b600061106b85828601610e46565b925050602061107c85828601610e46565b9150509250929050565b7f4e487b7100000000000000000000000000000000000000000000000000000000600052602260045260246000fd5b600060028204905060018216806110cd57607f821691505b602082108114156110e1576110e0611086565b5b50919050565b7f4e487b7100000000000000000000000000000000000000000000000000000000600052601160045260246000fd5b600061112182610e5b565b915061112c83610e5b565b9250827fffffffffffffffffffffffffffffffffffffffffffffffffffffffffffffffff03821115611161576111606110e7565b5b828201905092915050565b7f45524332303a2064656372656173656420616c6c6f77616e63652062656c6f7760008201527f207a65726f000000000000000000000000000000000000000000000000000000602082015250565b60006111c8602583610d48565b91506111d38261116c565b604082019050919050565b600060208201905081810360008301526111f7816111bb565b9050919050565b7f4f776e61626c653a206e6577206f776e657220697320746865207a65726f206160008201527f6464726573730000000000000000000000000000000000000000000000000000602082015250565b600061125a602683610d48565b9150611265826111fe565b604082019050919050565b600060208201905081810360008301526112898161124d565b9050919050565b7f45524332303a20617070726f76652066726f6d20746865207a65726f2061646460008201527f7265737300000000000000000000000000000000000000000000000000000000602082015250565b60006112ec602483610d48565b91506112f782611290565b604082019050919050565b6000602082019050818103600083015261131b816112df565b9050919050565b7f45524332303a20617070726f766520746f20746865207a65726f20616464726560008201527f7373000000000000000000000000000000000000000000000000000000000000602082015250565b600061137e602283610d48565b915061138982611322565b604082019050919050565b600060208201905081810360008301526113ad81611371565b9050919050565b7f45524332303a20696e73756666696369656e7420616c6c6f77616e6365000000600082015250565b60006113ea601d83610d48565b91506113f5826113b4565b602082019050919050565b60006020820190508181036000830152611419816113dd565b9050919050565b7f45524332303a207472616e736665722066726f6d20746865207a65726f20616460008201527f6472657373000000000000000000000000000000000000000000000000000000602082015250565b600061147c602583610d48565b915061148782611420565b604082019050919050565b600060208201905081810360008301526114ab8161146f565b9050919050565b7f45524332303a207472616e7366657220746f20746865207a65726f206164647260008201527f6573730000000000000000000000000000000000000000000000000000000000602082015250565b600061150e602383610d48565b9150611519826114b2565b604082019050919050565b6000602082019050818103600083015261153d81611501565b9050919050565b7f45524332303a207472616e7366657220616d6f756e742065786365656473206260008201527f616c616e63650000000000000000000000000000000000000000000000000000602082015250565b60006115a0602683610d48565b91506115ab82611544565b604082019050919050565b600060208201905081810360008301526115cf81611593565b9050919050565b7f4f776e61626c653a2063616c6c6572206973206e6f7420746865206f776e6572600082015250565b600061160c602083610d48565b9150611617826115d6565b602082019050919050565b6000602082019050818103600083015261163b816115ff565b905091905056fea2646970667358221220ee7a162e9a0fcb6de08172a58cd2baf8dccc0c1f65c747ac09f949b4602b410a64736f6c63430008090033",
  "linkReferences": {},
  "deployedLinkReferences": {}
}